{
  "contractName": "DigitalPassport",
  "abi": [
    {
      "anonymous": false,
      "inputs": [
        {
          "indexed": true,
          "internalType": "address",
          "name": "user",
          "type": "address"
        },
        {
          "indexed": false,
          "internalType": "string",
          "name": "passportNumber",
          "type": "string"
        },
        {
          "indexed": false,
          "internalType": "string",
          "name": "name",
          "type": "string"
        },
        {
          "indexed": false,
          "internalType": "string",
          "name": "nationality",
          "type": "string"
        },
        {
          "indexed": false,
          "internalType": "string",
          "name": "dateOfBirth",
          "type": "string"
        },
        {
          "indexed": false,
          "internalType": "string",
          "name": "placeOfBirth",
          "type": "string"
        },
        {
          "indexed": false,
          "internalType": "uint256",
          "name": "issueDate",
          "type": "uint256"
        },
        {
          "indexed": false,
          "internalType": "uint256",
          "name": "expirationDate",
          "type": "uint256"
        }
      ],
      "name": "PassportCreated",
      "type": "event"
    },
    {
      "anonymous": false,
      "inputs": [
        {
          "indexed": true,
          "internalType": "address",
          "name": "user",
          "type": "address"
        },
        {
          "indexed": false,
          "internalType": "string",
          "name": "passportNumber",
          "type": "string"
        },
        {
          "indexed": false,
          "internalType": "string",
          "name": "name",
          "type": "string"
        },
        {
          "indexed": false,
          "internalType": "string",
          "name": "nationality",
          "type": "string"
        },
        {
          "indexed": false,
          "internalType": "string",
          "name": "dateOfBirth",
          "type": "string"
        },
        {
          "indexed": false,
          "internalType": "string",
          "name": "placeOfBirth",
          "type": "string"
        },
        {
          "indexed": false,
          "internalType": "uint256",
          "name": "issueDate",
          "type": "uint256"
        },
        {
          "indexed": false,
          "internalType": "uint256",
          "name": "expirationDate",
          "type": "uint256"
        }
      ],
      "name": "PassportUpdated",
      "type": "event"
    },
    {
      "inputs": [
        {
          "internalType": "string",
          "name": "_name",
          "type": "string"
        },
        {
          "internalType": "string",
          "name": "_nationality",
          "type": "string"
        },
        {
          "internalType": "string",
          "name": "_passportNumber",
          "type": "string"
        },
        {
          "internalType": "string",
          "name": "_dateOfBirth",
          "type": "string"
        },
        {
          "internalType": "string",
          "name": "_placeOfBirth",
          "type": "string"
        },
        {
          "internalType": "uint256",
          "name": "_issueDate",
          "type": "uint256"
        },
        {
          "internalType": "uint256",
          "name": "_expirationDate",
          "type": "uint256"
        }
      ],
      "name": "createPassport",
      "outputs": [],
      "stateMutability": "nonpayable",
      "type": "function"
    },
    {
      "inputs": [
        {
          "internalType": "string",
          "name": "_name",
          "type": "string"
        },
        {
          "internalType": "string",
          "name": "_nationality",
          "type": "string"
        },
        {
          "internalType": "string",
          "name": "_passportNumber",
          "type": "string"
        },
        {
          "internalType": "string",
          "name": "_dateOfBirth",
          "type": "string"
        },
        {
          "internalType": "string",
          "name": "_placeOfBirth",
          "type": "string"
        },
        {
          "internalType": "uint256",
          "name": "_issueDate",
          "type": "uint256"
        },
        {
          "internalType": "uint256",
          "name": "_expirationDate",
          "type": "uint256"
        }
      ],
      "name": "updatePassport",
      "outputs": [],
      "stateMutability": "nonpayable",
      "type": "function"
    },
    {
      "inputs": [
        {
          "internalType": "address",
          "name": "_user",
          "type": "address"
        }
      ],
      "name": "getPassport",
      "outputs": [
        {
          "internalType": "string",
          "name": "",
          "type": "string"
        },
        {
          "internalType": "string",
          "name": "",
          "type": "string"
        },
        {
          "internalType": "string",
          "name": "",
          "type": "string"
        },
        {
          "internalType": "string",
          "name": "",
          "type": "string"
        },
        {
          "internalType": "string",
          "name": "",
          "type": "string"
        },
        {
          "internalType": "uint256",
          "name": "",
          "type": "uint256"
        },
        {
          "internalType": "uint256",
          "name": "",
          "type": "uint256"
        }
      ],
      "stateMutability": "view",
      "type": "function",
      "constant": true
    },
    {
      "inputs": [
        {
          "internalType": "string",
          "name": "_passportNumber",
          "type": "string"
        }
      ],
      "name": "getPassportByNumber",
      "outputs": [
        {
          "internalType": "address",
          "name": "",
          "type": "address"
        }
      ],
      "stateMutability": "view",
      "type": "function",
      "constant": true
    }
  ],
  "bytecode": "0x608060405234801561001057600080fd5b50610fd7806100206000396000f3fe608060405234801561001057600080fd5b506004361061004c5760003560e01c806357a5893c1461005157806392a34fec14610087578063a28c3c4a146100b7578063b970308d146100d3575b600080fd5b61006b60048036038101906100669190610a1a565b6100ef565b60405161007e9796959493929190610cfa565b60405180910390f35b6100a1600480360381019061009c9190610a43565b610430565b6040516100ae9190610cdf565b60405180910390f35b6100d160048036038101906100cc9190610a84565b610478565b005b6100ed60048036038101906100e89190610a84565b610704565b005b606080606080606060008060008060008a73ffffffffffffffffffffffffffffffffffffffff1673ffffffffffffffffffffffffffffffffffffffff168152602001908152602001600020905080600001816001018260020183600301846004018560050154866006015486805461016690610ed2565b80601f016020809104026020016040519081016040528092919081815260200182805461019290610ed2565b80156101df5780601f106101b4576101008083540402835291602001916101df565b820191906000526020600020905b8154815290600101906020018083116101c257829003601f168201915b505050505096508580546101f290610ed2565b80601f016020809104026020016040519081016040528092919081815260200182805461021e90610ed2565b801561026b5780601f106102405761010080835404028352916020019161026b565b820191906000526020600020905b81548152906001019060200180831161024e57829003601f168201915b5050505050955084805461027e90610ed2565b80601f01602080910402602001604051908101604052809291908181526020018280546102aa90610ed2565b80156102f75780601f106102cc576101008083540402835291602001916102f7565b820191906000526020600020905b8154815290600101906020018083116102da57829003601f168201915b5050505050945083805461030a90610ed2565b80601f016020809104026020016040519081016040528092919081815260200182805461033690610ed2565b80156103835780601f1061035857610100808354040283529160200191610383565b820191906000526020600020905b81548152906001019060200180831161036657829003601f168201915b5050505050935082805461039690610ed2565b80601f01602080910402602001604051908101604052809291908181526020018280546103c290610ed2565b801561040f5780601f106103e45761010080835404028352916020019161040f565b820191906000526020600020905b8154815290600101906020018083116103f257829003601f168201915b50505050509250975097509750975097509750975050919395979092949650565b60006001826040516104429190610cc8565b908152602001604051809103902060009054906101000a900473ffffffffffffffffffffffffffffffffffffffff169050919050565b600073ffffffffffffffffffffffffffffffffffffffff166001866040516104a09190610cc8565b908152602001604051809103902060009054906101000a900473ffffffffffffffffffffffffffffffffffffffff1673ffffffffffffffffffffffffffffffffffffffff1614610525576040517f08c379a000000000000000000000000000000000000000000000000000000000815260040161051c90610dac565b60405180910390fd5b60006040518060e00160405280898152602001888152602001878152602001868152602001858152602001848152602001838152509050806000803373ffffffffffffffffffffffffffffffffffffffff1673ffffffffffffffffffffffffffffffffffffffff16815260200190815260200160002060008201518160000190805190602001906105b79291906108e5565b5060208201518160010190805190602001906105d49291906108e5565b5060408201518160020190805190602001906105f19291906108e5565b50606082015181600301908051906020019061060e9291906108e5565b50608082015181600401908051906020019061062b9291906108e5565b5060a0820151816005015560c08201518160060155905050336001876040516106549190610cc8565b908152602001604051809103902060006101000a81548173ffffffffffffffffffffffffffffffffffffffff021916908373ffffffffffffffffffffffffffffffffffffffff1602179055503373ffffffffffffffffffffffffffffffffffffffff167f19dbc7631203fb02565a9be42942bb40c7d6c8c93373d12e85dab5c8a6a84074878a8a898989896040516106f29796959493929190610cfa565b60405180910390a25050505050505050565b3373ffffffffffffffffffffffffffffffffffffffff1660018660405161072b9190610cc8565b908152602001604051809103902060009054906101000a900473ffffffffffffffffffffffffffffffffffffffff1673ffffffffffffffffffffffffffffffffffffffff16146107b0576040517f08c379a00000000000000000000000000000000000000000000000000000000081526004016107a790610d8c565b60405180910390fd5b60008060003373ffffffffffffffffffffffffffffffffffffffff1673ffffffffffffffffffffffffffffffffffffffff16815260200190815260200160002090508781600001908051906020019061080a9291906108e5565b50868160010190805190602001906108239291906108e5565b508581600201908051906020019061083c9291906108e5565b50848160030190805190602001906108559291906108e5565b508381600401908051906020019061086e9291906108e5565b508281600501819055508181600601819055503373ffffffffffffffffffffffffffffffffffffffff167f7aeeb5ae02aca913b0fa13fb1f99d906472b5b8f3a1c84fa9621344fafd8bdbc878a8a898989896040516108d39796959493929190610cfa565b60405180910390a25050505050505050565b8280546108f190610ed2565b90600052602060002090601f016020900481019282610913576000855561095a565b82601f1061092c57805160ff191683800117855561095a565b8280016001018555821561095a579182015b8281111561095957825182559160200191906001019061093e565b5b509050610967919061096b565b5090565b5b8082111561098457600081600090555060010161096c565b5090565b600061099b61099684610dfd565b610dcc565b9050828152602081018484840111156109b357600080fd5b6109be848285610e90565b509392505050565b6000813590506109d581610f73565b92915050565b600082601f8301126109ec57600080fd5b81356109fc848260208601610988565b91505092915050565b600081359050610a1481610f8a565b92915050565b600060208284031215610a2c57600080fd5b6000610a3a848285016109c6565b91505092915050565b600060208284031215610a5557600080fd5b600082013567ffffffffffffffff811115610a6f57600080fd5b610a7b848285016109db565b91505092915050565b600080600080600080600060e0888a031215610a9f57600080fd5b600088013567ffffffffffffffff811115610ab957600080fd5b610ac58a828b016109db565b975050602088013567ffffffffffffffff811115610ae257600080fd5b610aee8a828b016109db565b965050604088013567ffffffffffffffff811115610b0b57600080fd5b610b178a828b016109db565b955050606088013567ffffffffffffffff811115610b3457600080fd5b610b408a828b016109db565b945050608088013567ffffffffffffffff811115610b5d57600080fd5b610b698a828b016109db565b93505060a0610b7a8a828b01610a05565b92505060c0610b8b8a828b01610a05565b91505092959891949750929550565b610ba381610e54565b82525050565b6000610bb482610e2d565b610bbe8185610e38565b9350610bce818560208601610e9f565b610bd781610f62565b840191505092915050565b6000610bed82610e2d565b610bf78185610e49565b9350610c07818560208601610e9f565b80840191505092915050565b6000610c20602483610e38565b91507f556e617574686f72697a656420746f207570646174652074686973207061737360008301527f706f7274000000000000000000000000000000000000000000000000000000006020830152604082019050919050565b6000610c86601783610e38565b91507f50617373706f727420616c7265616479206578697374730000000000000000006000830152602082019050919050565b610cc281610e86565b82525050565b6000610cd48284610be2565b915081905092915050565b6000602082019050610cf46000830184610b9a565b92915050565b600060e0820190508181036000830152610d14818a610ba9565b90508181036020830152610d288189610ba9565b90508181036040830152610d3c8188610ba9565b90508181036060830152610d508187610ba9565b90508181036080830152610d648186610ba9565b9050610d7360a0830185610cb9565b610d8060c0830184610cb9565b98975050505050505050565b60006020820190508181036000830152610da581610c13565b9050919050565b60006020820190508181036000830152610dc581610c79565b9050919050565b6000604051905081810181811067ffffffffffffffff82111715610df357610df2610f33565b5b8060405250919050565b600067ffffffffffffffff821115610e1857610e17610f33565b5b601f19601f8301169050602081019050919050565b600081519050919050565b600082825260208201905092915050565b600081905092915050565b6000610e5f82610e66565b9050919050565b600073ffffffffffffffffffffffffffffffffffffffff82169050919050565b6000819050919050565b82818337600083830152505050565b60005b83811015610ebd578082015181840152602081019050610ea2565b83811115610ecc576000848401525b50505050565b60006002820490506001821680610eea57607f821691505b60208210811415610efe57610efd610f04565b5b50919050565b7f4e487b7100000000000000000000000000000000000000000000000000000000600052602260045260246000fd5b7f4e487b7100000000000000000000000000000000000000000000000000000000600052604160045260246000fd5b6000601f19601f8301169050919050565b610f7c81610e54565b8114610f8757600080fd5b50565b610f9381610e86565b8114610f9e57600080fd5b5056fea2646970667358221220daf0db08ccc793736dca07f14fb4169ea9f2a8b9377ff1a2348b5322a9e4783964736f6c63430008000033",
  "immutableReferences": {},
  "source": "// SPDX-License-Identifier: MIT\r\npragma solidity ^0.8.0;\r\n\r\ncontract DigitalPassport {\r\n    struct Passport {\r\n        string name;\r\n        string nationality;\r\n        string passportNumber;\r\n        string dateOfBirth;\r\n        string placeOfBirth;\r\n        uint256 issueDate;\r\n        uint256 expirationDate;\r\n    }\r\n\r\n    mapping(address => Passport) private passports;\r\n    mapping(string => address) private passportToOwner;\r\n\r\n    event PassportCreated(address indexed user, string passportNumber, string name, string nationality, string dateOfBirth, string placeOfBirth, uint256 issueDate, uint256 expirationDate);\r\n    event PassportUpdated(address indexed user, string passportNumber, string name, string nationality, string dateOfBirth, string placeOfBirth, uint256 issueDate, uint256 expirationDate);\r\n\r\n    function createPassport(\r\n        string memory _name,\r\n        string memory _nationality,\r\n        string memory _passportNumber,\r\n        string memory _dateOfBirth,\r\n        string memory _placeOfBirth,\r\n        uint256 _issueDate,\r\n        uint256 _expirationDate\r\n    ) public {\r\n        require(passportToOwner[_passportNumber] == address(0), \"Passport already exists\");\r\n\r\n        Passport memory newPassport = Passport({\r\n            name: _name,\r\n            nationality: _nationality,\r\n            passportNumber: _passportNumber,\r\n            dateOfBirth: _dateOfBirth,\r\n            placeOfBirth: _placeOfBirth,\r\n            issueDate: _issueDate,\r\n            expirationDate: _expirationDate\r\n        });\r\n\r\n        passports[msg.sender] = newPassport;\r\n        passportToOwner[_passportNumber] = msg.sender;\r\n\r\n        emit PassportCreated(msg.sender, _passportNumber, _name, _nationality, _dateOfBirth, _placeOfBirth, _issueDate, _expirationDate);\r\n    }\r\n\r\n    function updatePassport(\r\n        string memory _name,\r\n        string memory _nationality,\r\n        string memory _passportNumber,\r\n        string memory _dateOfBirth,\r\n        string memory _placeOfBirth,\r\n        uint256 _issueDate,\r\n        uint256 _expirationDate\r\n    ) public {\r\n        require(passportToOwner[_passportNumber] == msg.sender, \"Unauthorized to update this passport\");\r\n\r\n        Passport storage existingPassport = passports[msg.sender];\r\n        existingPassport.name = _name;\r\n        existingPassport.nationality = _nationality;\r\n        existingPassport.passportNumber = _passportNumber;\r\n        existingPassport.dateOfBirth = _dateOfBirth;\r\n        existingPassport.placeOfBirth = _placeOfBirth;\r\n        existingPassport.issueDate = _issueDate;\r\n        existingPassport.expirationDate = _expirationDate;\r\n\r\n        emit PassportUpdated(msg.sender, _passportNumber, _name, _nationality, _dateOfBirth, _placeOfBirth, _issueDate, _expirationDate);\r\n    }\r\n\r\n    function getPassport(address _user) public view returns (string memory, string memory, string memory, string memory, string memory, uint256, uint256) {\r\n        Passport storage passport = passports[_user];\r\n        return (passport.name, passport.nationality, passport.passportNumber, passport.dateOfBirth, passport.placeOfBirth, passport.issueDate, passport.expirationDate);\r\n    }\r\n\r\n    function getPassportByNumber(string memory _passportNumber) public view returns (address) {\r\n        return passportToOwner[_passportNumber];\r\n    }\r\n}\r\n",
  "sourcePath": "H:\\Desktop\\passeportLocal\\contracts\\Passeport.sol",
  "compiler": {
    "name": "solc",
    "version": "0.8.0+commit.c7dfd78e.Emscripten.clang"
  },
  "schemaVersion": "3.4.16",
  "updatedAt": "2024-06-19T12:04:29.338Z",
  "networkType": "ethereum",
  "devdoc": {
    "kind": "dev",
    "methods": {},
    "version": 1
  },
  "userdoc": {
    "kind": "user",
    "methods": {},
    "version": 1
  }
}